:100000000C94BD030C94DA030C94DA030C94DA0319
:100010000C94DA030C94DA030C94DA030C94DA03EC
:100020000C94DA030C94DA030C94190E0C94CD1290
:100030000C94AE220C94DA030C94DA030C94DA03D9
:100040000C94DA030C94DA030C94DA030C94DA03BC
:100050000C94DA030C94F00E0C94DA030C94DA038B
:100060000C94DA030C94DA030C94DA030C94DA039C
:100070000C94DA030C94DA030C94DA030C94DA038C
:100080000C94DA030C94DA030C94DA030C94DA037C
:100090000C94DA030C94DA030C94DA030C94DA036C
:1000A0000C94DA030C94DA030C94DA03050109804A
:1000B000A101850319012AB700150126B700950192
:1000C00075108100C0050C0901A101850419012AE0
:1000D000A002150126A002950175108100C005013E
:1000E0000906A1018505050719E029E71500250185
:1000F0009508750181020507190029EF15002501F2
:1001000095F075018102050819012905950575010C
:100110009102950175039101C005010902A1010930
:1001200001A100050919012905150025019505758D
:10013000018102950175038101050109300931151D
:1001400081257F95027508810609381581257F95DF
:100150000175088106050C0A38021581257F950175
:1001600075088106C0C005010906A101050719E04F
:1001700029E715002501950875018102950175088B
:1001800081010507190029FF150026FF0095067556
:100190000881000508190129059505750191029549
:1001A0000175039101C00000000000000000000084
:1001B000000000000000000000007E0F00D4FFFFE0
:1001C000FFC70000007800000000000000002A2B9C
:1001D00028000000000000000000000000000000F7
:1001E0000029000000002C1E342021222434262760
:1001F000252E362D3738271E1F2021222324252681
:100200003333362E37381F0405060708090A0B0C4E
:100210000D0E0F101112131415161718191A1B1C96
:100220001D2F3130232D350405060708090A0B0C54
:100230000D0E0F101112131415161718191A1B1C76
:100240001D2F3130354C0102E001012C0103E0008B
:100250000102E30102E101010D0103E10103E300F9
:1002600029002B003500E100E00000001E00140012
:1002700004001D00350001001F001A0016431B6416
:1002800004532E5D20000800074206612D5D2C6896
:100290002100150009411962E20001002200170047
:1002A0000A000500000039002300010000000100E1
:1002B0000000010024000100000001000000A9006E
:1002C00025001C000B00110000004900260018004A
:1002D0000D0010725000AA0027000C000E003671AD
:1002E000510035002D0012000F00377452004C00F1
:1002F0002E001300330038004F00A8002A00310000
:1003000028003400E40000000100010001000100A9
:1003100001000000010001000100010001000100D6
:1003200001000100010001000100010001000100C5
:1003300001000100010001000100010001000100B5
:1003400001000100010001000100010000000100A6
:100350000100010000000100000001000100010097
:1003600000000100000001001E02350034003402CC
:10037000000001001F022F0226022F0001000100D1
:100380002002300227023000010001002102230276
:100390002D02250201000100220224023502310251
:1003A0000100010001000100010001000100000046
:1003B0000100010001000100010000000100010036
:1003C0000100010001000100010001000100010025
:1003D0000100010001000100010001000100010015
:1003E0000100010001000100010001000100010005
:1003F00001000100000001000100010000000100F7
:1004000000000100010001000000010000000100E7
:1004100001004A00500001000000010001004E00F0
:10042000510001000100010001004B0052000100D9
:100430000100010001004D004F000100010001001A
:1004400001000100010001000100010001000100A4
:100450000100010001000000010001000100010095
:100460000100000001000100010001000100010085
:1004700001000100010001000100F600010001007F
:10048000010001000100F400010001000100010071
:100490000100010001000100010001000000010055
:1004A0000100010000000100000001000100010046
:1004B00000000100000001000100FB00F20001004B
:1004C000000001000100FA00F1000100010001003C
:1004D0000100F900F00001000100F5000100FC003E
:1004E000F3000100010047000100010001000100CC
:1004F000010001000100FF00FE00FD0001000000FE
:100500000100010001000100010000003A000100AB
:1005100001000100010001003B0001000100010099
:10052000010001003C000100010001000100010088
:100530003D00010001000100010001003E0001003A
:1005400001000100000001003F0001000000010067
:100550000000010040000100000001000000010057
:10056000410001001A5C010000000100420001008E
:10057000195C01000100010043000100185C01004A
:1005800001006A0044000100175C010001006900DD
:10059000450001000100010001000100010001000F
:1005A00001000100095D00000A00000000000306D0
:1005B000B200080001000000A800080002000300CB
:1005C000A0001400030057494E555342000000009C
:1005D0000000000000008400040007002A0044001E
:1005E0006500760069006300650049006E007400D4
:1005F00065007200660061006300650047005500F9
:10060000490044007300000050007B0039004400A2
:100610004200370046003100460044002D003700FC
:100620004500370041002D00340030003000380014
:100630002D0039003300360042002D003600420004
:1006400041003600430031003900410033003000E2
:10065000380063007D00000000001B0301636F6E23
:100660006669677572652E6572676F646F782D6550
:100670007A2E636F6D0009026B00040100A0FA0975
:1006800004000001030101000921110100012240C1
:10069000000705810308000A0904010001030102A3
:1006A00000092111010001224D0007058203080005
:1006B0000A090402000103000000092111010001E0
:1006C000226D000705830320000A0904030002FFCE
:1006D00000000007058403400005070505034000EE
:1006E0000512011002000000089732744901000150
:1006F00002000116034500720067006F0044006F9E
:10070000007800200045005A00000030035A0053D2
:10071000004100200054006500630068006E006F17
:10072000006C006F006700790020004C00610062DF
:10073000007300200049006E0063000000040309FC
:1007400004050F3900021C100500DF60DDD8894563
:10075000C74C9CD2659D9E648A9F00000306B20030
:1007600045001810050038B60834A909A0478BFDCC
:10077000A0768815B6650001420011241FBECFEF98
:10078000DAE0DEBFCDBF11E0A0E0B1E0E4E6F0E5E5
:1007900002C005900D92A836B107D9F722E0A8E66D
:1007A000B1E001C01D92A739B207E1F70E94401FD6
:1007B0000C9405280C940000E8EDF0E080818E7F19
:1007C00080831092E2001092DA001092E100A0EE15
:1007D000B0E08C9181608C9380818F77808319BC8D
:1007E000A7EDB0E08C918E7F8C9380818F7E80838B
:1007F0001092610208952091E4003091E50095E6A1
:10080000A9012091EC00822F817020FF06C0809109
:10081000E80080FF06C080E008952091E80022FDF6
:100820001AC080918602882389F0853089F08091F2
:10083000EB0085FD0FC02091E4003091E5004217E8
:100840005307F9F29150E1F684E0089582E00895AB
:1008500083E0089581E00895EF92FF920F931F9334
:10086000CF937C018B010E94FB03C82F882371F07A
:100870008C2FCF911F910F91FF90EF900895F7016A
:1008800081917F018093F10001501109011511053B
:1008900079F38091E80085FDF2CF8091E8008E77B2
:1008A0008093E8000E94FB03882381F3C82FE0CFE8
:1008B0008091880287FF13C08091E80082FF06C004
:1008C0008091E8008B778093E80004C080918602D5
:1008D0008111F2CF0895809186028823D9F3809107
:1008E000E80080FFF8CF8091E8008E77ECCF982F5A
:1008F0009093E900242F762F50E0891731F0709102
:10090000EC002091ED005091F00021FD07C09F5FA9
:10091000973071F78093E90081E008953091EB0002
:100920003E7F3093EB003091ED003D7F3093ED0042
:100930003091EB0031603093EB007093EC0020932A
:10094000ED005093F0002091EE0027FDE0CF80E015
:100950000895CF92DF92EF92FF920F931F93CF9360
:10096000DF93C8EDD0E088818F7E8883E7EDF0E0EB
:1009700080818160808384E082BF81E08093610216
:1009800088818E7F888302EE10E0F8011082109239
:10099000DA0081EEC82ED12CF601108288818F7783
:1009A000888388818068888388818F7D888319BC4B
:1009B0001092860210928702109285021092840291
:1009C00090EEE92EF12CF70180818B7F8083888166
:1009D0008160888342E060E080E00E947704F60155
:1009E00080818E7F8083F801808181608083808117
:1009F00088608083F70180818E7F80838881806119
:100A00008883DF91CF911F910F91FF90EF90DF903E
:100A1000CF900895FC0180918E0290918F028617ED
:100A20009707A0F06115710529F48091E8008E7791
:100A30008093E80090E06115710551F4911108C0B0
:100A40008091E80082FF35C080E00895BC01F2CFBC
:100A5000809186028823C9F18530C9F18091E80030
:100A600083FD31C08091E80082FDEACF8091E800EB
:100A700080FFE1CF8091F3002091F200382F6115C3
:100A8000710519F02830310558F091E02830310512
:100A900009F090E08091E8008E778093E800CBCF5A
:100AA00084918093F1003196615071092F5F3F4F1F
:100AB000E6CF80918602882341F0853041F0809115
:100AC000E80083FFBDCF81E0089582E0089583E0D0
:100AD0000895FC0180918E0290918F0286179707EE
:100AE000A0F06115710529F49091E8009E7790932C
:100AF000E80090E06115710551F4911108C08091F2
:100B0000E80082FF34C080E00895BC01F2CF8091FC
:100B100086028823C1F18530C1F18091E80083FD10
:100B200030C08091E80082FDEACF8091E80080FF2C
:100B3000E1CF8091F3002091F200382F611571050B
:100B400019F02830310558F091E02830310509F0CE
:100B500090E02091E8002E772093E800CBCF8191A0
:100B60008093F100615071092F5F3F4FE7CF809173
:100B70008602882341F0853041F08091E80083FFB0
:100B8000BECF81E0089582E0089583E008958091CA
:100B90006302089520918602243091F42093E900A5
:100BA00070E050E040E00E942C04882321F0109275
:100BB0005F02109260028091E8008E778093E800D7
:100BC000089590914602803F59F48091470287FF33
:100BD0000DC01092470291110BC01092420208C042
:100BE000813F81F48091470218169CF3992381F08C
:100BF0008091480290914902892B09F064C01092BB
:100C00003F020895823F49F497FFF0CF10924602C9
:100C1000809147028111ECCFE0CF833F19F4191680
:100C2000ACF3E4CF20914802893F29F41216F4F680
:100C300010924802DBCF8A3F19F427FFD7CFF8CFB5
:100C4000209149028B3F29F427FFD0CF109249020F
:100C5000CDCF8C3F19F41216CCF3C8CF843F31F4BA
:100C6000809145028E7F80934502C0CF853F21F45D
:100C7000809145028D7FF7CF863F21F48091450218
:100C80008B7FF1CF873F21F480914502877FEBCFA7
:100C9000883F21F4809145028F7EE5CF8D3F31F46E
:100CA000809117028E7F80931702A0CF8E3F21F490
:100CB000809117028D7FF7CF8F3F09F097CF8091FA
:100CC00017028B7FF0CF08958091170280FD1AC024
:100CD00081FD14C082FD14C080913F02882391F0F1
:100CE0008C3370F427E0829FC00111246CE370E024
:100CF0000E94A223862F672B29F0089583E0089590
:100D000087E0089581E008958091170280FD16C064
:100D100081FD16C082FD18C080914202882391F0A7
:100D20008C3390F423E2829FC00111246CE370E0C5
:100D30000E94A223862F672B49F0089588E008952A
:100D400081E1089585E0089583E2089581E00895A2
:100D5000803F31F40E948406819580934702089574
:100D6000813F19F40E948406F8CF823F31F40E943B
:100D700084068195809346020895833F19F40E946A
:100D80008406F8CF893F29F40E94640680934802C4
:100D900008958A3F21F40E9464068195F7CF8B3F26
:100DA00031F40E94640681958093490208958C3F36
:100DB00019F40E946406F8CF843F31F48091450213
:100DC0008160809345020895853F21F4809145021A
:100DD0008260F7CF863F21F4809145028460F1CF95
:100DE000873F21F4809145028860EBCF883F21F452
:100DF000809145028061E5CF8D3F31F480911702EB
:100E000081608093170208958E3F21F4809117022C
:100E10008260F7CF8F3FB9F7809117028460F1CFDE
:100E20009C014FB7F8948091130290911402A09105
:100E30001502B09116024FBF821B930B08952091AB
:100E400015012223C9F020912C0227FF15C0E62F9F
:100E5000E695E695E695EE31D8F4E80FF92FF11D09
:100E6000677021E030E001C0220F6A95EAF7209513
:100E70008281282322830895FC01329608962191CD
:100E8000621303C0DF0111971C92E817F907B9F745
:100E90000895209115012223C1F020912C0227FFF3
:100EA00014C0E62FE695E695E695EE31F8F4E80FE6
:100EB000F92FF11D677021E030E001C0220F6A9523
:100EC000EAF78281822B82830895FC0132962FEF0C
:100ED00030E04191641751F02F3F19F4411101C0E6
:100EE000232F3F5F3630A9F72F3F09F40895820F73
:100EF000911D27FD9A95FC0162830895CF92DF92A0
:100F0000EF92FF926C01EE24FF2420E0C114D10483
:100F1000E104F10419F0C701B60120E1C72ED82E73
:100F2000E92EFF24C114D104E104F10419F0285F73
:100F3000C701B6016B017C0154E0F694E794D794A5
:100F4000C7945A95D1F7C114D104E104F10419F002
:100F50002C5FC701B6016B017C0142E0F694E79477
:100F6000D794C7944A95D1F7C114D104E104F10490
:100F700019F02E5FC701B60196958795779567950D
:100F8000672B682B692B09F02F5F822FFF90EF9062
:100F9000DF90CF90089580910E02811110920E0281
:100FA000089580910D0290910C02892B90910B0273
:100FB000892B8093680190910E029923A1F0892BCF
:100FC0008093680180911501882341F180912C0262
:100FD00087FF24C08EE1EAE6F1E090E0815000F561
:100FE00091110E94CB07E0912E02F0912F023097D1
:100FF000E1F080911501882359F080912C0287FF40
:1010000007C0809168018093690185E08093680141
:101010000280F381E02D88E691E0099486E0DBCF41
:1010200021912223D9F29F5FD9CF0895E92FEE0FA6
:10103000E90FEE0F8E0F982F9770869586958695FF
:1010400025E0829FF0011124ED52FE4F50E040E078
:1010500080E0219130E0092E02C0369527950A9450
:10106000E2F721703327042E01C0220F0A94EAF719
:10107000822B4F5F5F4F4530510559F70895E92F97
:10108000EE0FE90FEE0F8E0F982F977041E001C021
:10109000440F9A95EAF786958695869595E0899FFF
:1010A000F0011124ED52FE4F30E020E070E051914C
:1010B000DF011197CB01022E02C0969587950A9405
:1010C000E2F7817081958527842385278C932F5F94
:1010D0003F4F2530310559F708958091D201909105
:1010E000A101981301C008958F5F8770FACF8823FC
:1010F00041F0809590910D02892380930D020C940C
:10110000D1070895882339F090910D02982B909380
:101110000D020C94D107089520919401309195010E
:101120002817390771F09093950180939401E0910D
:101130002E02F0912F02309721F00084F185E02DEE
:10114000099408952091920130919301281739074D
:1011500071F09093930180939201E0912E02F091AF
:101160002F02309721F00680F781E02D0994089531
:10117000E0912E02F0912F02309721F00190F08142
:10118000E02D099480E0089590912C0292FF06C012
:10119000282F28712830F9F4877F846093FF06C0D8
:1011A000282F28712831F1F4877E846120912D0247
:1011B00020FF06C0382F38713830D9F4877F81601E
:1011C00021FF06C0282F28712831D1F4877E816144
:1011D00094FD877E0895282F24712430F9F68B7FA3
:1011E0008860DCCF282F2471243101F78B7E886141
:1011F000DDCF382F3171313019F78E7F8860E0CF25
:10120000282F2171213121F78E7E8861E1CFCF9384
:10121000DF93972F70E026E0929F600D711D1124DF
:10122000FB0134E5839FE00DF11D1124EE0FFF1F3C
:10123000E05AFD4FC591D491CE01C238D105B9F124
:10124000E8F5C133D10509F499C050F5C932D1058B
:1012500009F48DC0CA32D10509F497C0C11521E542
:10126000D20708F0BFC0C11530E5D30708F016C19A
:10127000C83ED10508F09DC0C03ED10568F5C83A0A
:10128000D10508F089C0C53AD10508F0FFC0C130CA
:10129000D10511F1209709F443C02497E8F440C028
:1012A000C533D10509F45CC0C933D105B9F6209125
:1012B0002C02237089F080EE90E00EC0C33ED10571
:1012C00091F168F4C03ED105F9F0C23ED10531F686
:1012D00020912C0222FD20C0DF91CF910895C63EBF
:1012E000D10561F1C73ED10581F1C43ED10509F0B8
:1012F000B5CF20912D0221FFEFCF80912C0284FDEC
:101300000FC087EE90E0E8CF20912C0220FD12C1A3
:1013100030912D0230FFE0CF83EE90E024FFDCCF50
:1013200090E080E0D9CF20912C0222FD06C13091BF
:101330002D0230FDC0CF24FFCFCFF2CF20912C0261
:1013400023FFCACF24FDECCFDCCF20912C0223FD5C
:10135000F7C030912D0231FFEECF84EE90E0BCCF8C
:1013600020912C0225FFB8CF89E290E0B5CF2091E3
:101370002C0225FFB1CF85E390E0AECF20912C0267
:1013800026FFAACF8AE290E0A7CF20912C0226FF69
:10139000A3CF81E390E0A0CFCF3BD10508F6C85A98
:1013A000D0E0CC0FDD1FC65DDE4F8881998194644B
:1013B00093CFC11520E2D20760F4C11531E0D30705
:1013C00008F08ACFCE019065C03FD10508F084CFE8
:1013D000A7CFC11580E4D80708F4A2CFCE019F7033
:1013E000906A7ACFC11595E5D90710F5C11524E5A6
:1013F000D20708F088C0C11533E5D30708F06FC0E5
:10140000C11582E5D80708F465C09E012370332713
:1014100081E090E002C0880F991F2A95E2F7C695F7
:10142000C69520E2C29FE00111248C2B9D2B50C059
:10143000C11599E5D907A0F4C11528E5D20708F030
:1014400067C0C11536E5D30708F06ACF8C2F0E941C
:10145000C40890E0982F882788279F7190623CCF1E
:10146000C1158AE5D80708F458C0CE0190568115F9
:10147000904208F055CF8D2F8F710E94C40890E0E4
:10148000982F882788279F718C2BE8CFC55AD0E0EA
:10149000C95DDE4F888190E090641ECF9E01E4E03C
:1014A00036952795EA95E1F723708C2F86958695DA
:1014B000837030E2839FC0011124922BC37021E01E
:1014C00030E002C0220F331FCA95E2F7822B932B24
:1014D0009C6802CF9C2F8827816F906AFDCE9E0169
:1014E0002370332781E090E002C0880F991F2A956E
:1014F000E2F7C695C69530E2C39FE00111248C2B1C
:101500009D2B9A68E9CE9C2F8827846F906AE4CE41
:101510009C2F8827806F906ADFCE8C2F8F700E945F
:10152000C40834E0D695C7953A95E1F7CF709C2F63
:101530009069D2CE89E390E0CFCE82EE90E0CCCE1F
:1015400086EE90E0C9CEBF92CF92DF92EF92FF92EB
:101550000F931F93CF93DF938C01C0905A02D090CA
:101560005B02E0905C02F0905D0280910F0290912E
:101570001002A0911102B0911202C82AD92AEA2AB7
:10158000FB2ACFE1D0E0BC2ED701C6010C2E04C04F
:10159000B695A795979587950A94D2F780FD0EC0CA
:1015A000219788F7B12C8B2DDF91CF911F910F914F
:1015B000FF90EF90DF90CF90BF900895B8018C2FEF
:1015C0000E940709019761F3EECFCF93DF93EC01FF
:1015D0000E94A30ABE01DF91CF910C9407090E94DB
:1015E000E50A292F2F7092959F7092509E3078F4C3
:1015F000E92FF0E0E95FF74D0C94B623803F19F036
:1016000020F4883E20F481E00895843FE1F380E0F7
:101610000895883EC0F3813FD1F7F5CF822F86959C
:1016200086958695089527982F98089526982E9840
:10163000089525982D98089556985E980895279AAC
:101640002F9A0895269A2E9A0895259A2D9A0895EC
:10165000CF92DF92EF92FF92CF936B017C010E94B9
:101660007E07C82F0E941C0B0E94190B0E94160BAC
:101670000E94130BC150C73040F4EC2FF0E0EB5E3A
:10168000F74D0C94B6230E94250BC701B601CF91EC
:10169000FF90EF90DF90CF9008950E94250B0E945D
:1016A000220BF3CF0E94250B0E941F0BEECF0E944E
:1016B000250B0E94220BF8CF209828982198299872
:1016C00022982A9823982B9852985A9853985B9866
:1016D0003E98469808958098889A8198899A849827
:1016E0008C9A85988D9A86988E9A87988F9A089565
:1016F000CF9384E090E00E94F323C82F81E290E032
:101700000E94F323982F8C2FCF910895CF93DF93CE
:1017100000D00F92CDB7DEB790918602943019F5C4
:1017200089837B836A8383E08093E9008FEF9091C4
:10173000E800815095FD06C095ED9A95F1F70000FF
:101740008111F5CF8091E80085FF0DC050E040E0A9
:1017500063E070E0CE0101960E942C048091E800C5
:101760008E778093E8000F900F900F90DF91CF91CC
:101770000895BC0184E00C94860BBC0183E00C94BA
:10178000860B9C0182E08093E9009FEF8091E80046
:10179000915085FD06C085ED8A95F1F70000911105
:1017A000F5CF8091E80085FF0CC050E040E065E097
:1017B00070E0C9010E942C048091E8008E7780932C
:1017C000E8000895CF93DF93EC0180911501882301
:1017D000B1F180912C0287FF32C060E283E08093F8
:1017E000E9008FEF9091E800815095FD06C095EDDE
:1017F0009A95F1F700008111F5CF8091E80085FFFF
:101800001BC08091150170E050E040E0811104C0E0
:1018100050E040E068E070E0CE010E942C0480912E
:10182000E8008E778093E80080E2FE01A4E6B2E053
:1018300001900D928A95E1F7DF91CF91089568E0CC
:1018400081E0CDCFEF92FF920F931F93CF93DF9361
:101850000E941C0B0E94190B0E94160B0E94130B76
:1018600088E8E82EF12C8FEF90E0F70191838083D8
:101870000AE810E0F80191838083CCE8D0E09983F6
:1018800088830E94250BFFEF20E782E0F150204083
:101890008040E1F700C000000E94220B9FEFE0E7CC
:1018A000F2E09150E040F040E1F700C000000E94FB
:1018B0001F0B2FEF80E792E0215080409040E1F72E
:1018C00000C000000E94190BEFEFF0E722E0E150AA
:1018D000F0402040E1F700C000000E94160B8FEF9F
:1018E00090E7E2E081509040E040E1F700C0000066
:1018F0000E94130B80911A028770FFEF8F9FC00127
:10190000112495958795959587959927F70191834A
:101910008083F80191838083998388830E941C0BC4
:101920000E94190B0E94160BDF91CF911F910F910E
:10193000FF90EF900C94130B6FEE7EEF90E080E041
:101940000E94252460E082E090E00E94072460E08D
:1019500083E090E00E94072410920F021092100280
:10196000109211021092120260E084E090E00E9456
:10197000072460E081E290E00E94072460E085E0B7
:1019800090E00E94072460E086E090E00E94072437
:101990006FEF87E090E00E94072440E050E0BA013A
:1019A00088E090E00E94192460E08DE090E00E94C1
:1019B000072440E050E0BA0188E190E00E94192439
:1019C00060E087E190E00E94072440E050E0BA0127
:1019D0008CE190E00E94192460E080E290E00E9497
:1019E000072440E050E0BA0188E190E00E94192409
:1019F00010921A0210921B0210921C0210921D02E9
:101A000084E0806180931A0240911A0250911B0277
:101A100060911C0270911D028FE090E00E941924D9
:101A200040E050E0BA0183E190E00C941924CF9398
:101A3000C82F873070F58091090190910A01892B98
:101A400089F564E670E080E40E94DB2290930A014D
:101A500080930901892BD1F464E670E082E10E9451
:101A6000372390930A0180930901892B79F481E04F
:101A700090E001C0880FCA95EAF764E670E08095AF
:101A80000E94372390930A0180930901CF910C940F
:101A90008A238A30B9F040F4883071F0893079F0C7
:101AA000209A2898CF9108958C3091F070F08D3065
:101AB000B9F73E9A4698F6CF219A2998F3CF229A01
:101AC0002A98F0CF239A2B98EDCF529A5A98EACFC2
:101AD000539A5B98E7CF80E290E090930A0180935D
:101AE00009018091880181110EC00E94D52281E0F8
:101AF000809388012FEF83ED90E321508040904048
:101B0000E1F700C0000064E670E080E40E94DB22A0
:101B100090930A0180930901892B09F04EC064E675
:101B200070E080E00E94372390930A0180930901BE
:101B3000892B09F042C064E670E080E00E94372300
:101B400090930A0180930901892BB9F564E670E04E
:101B50008FE30E94372390930A0180930901892B18
:101B600061F50E948A2364E670E080E40E94DB2233
:101B700090930A0180930901892BF9F464E670E0DF
:101B80008CE00E94372390930A0180930901892BEE
:101B9000A1F464E670E080E00E94372390930A018C
:101BA00080930901892B49F464E670E08FE30E9479
:101BB000372390930A01809309010E948A23809120
:101BC00009010895CF93873050F5809109019091D4
:101BD0000A01C0E0892B71F464E670E081E40E94A0
:101BE000DB2290930A0180930901892B31F0C0E038
:101BF0000E948A238C2FCF91089584E690E00E9462
:101C0000662397FF05C090930A0180930901EFCFE7
:101C1000C82FC09510920A0110920901E9CFCFB1E7
:101C20008FB1869586958C73C3708C2BC82FC09509
:101C3000E1CF1F920F920FB60F9211242F933F9373
:101C40004F935F936F937F938F939F93AF93BF93C4
:101C5000EF93FF938091E10082FF09C08091E20041
:101C600082FF05C08091E1008B7F8093E10080912D
:101C7000DA0080FF24C08091D80080FF20C08091CE
:101C8000DA008E7F8093DA008091D90080FF9BC0BC
:101C900080E189BD82E189BD09B400FEFDCF81E00C
:101CA0008093860280916102811109C00E94DC0349
:101CB0000E94A9048091E20084608093E2008091F8
:101CC000E10080FF17C08091E20080FF13C0809187
:101CD000E2008E7F8093E2008091E2008061809339
:101CE000E2008091D80080628093D80019BC85E022
:101CF000809386028091E10084FF29C08091E200F8
:101D000084FF25C080E189BD82E189BD89B5982F16
:101D1000917080FFFBCF8091D8008F7D8093D80099
:101D20008091E1008F7E8093E1008091E2008F7EC0
:101D30008093E2008091E20081608093E2008091D4
:101D40008702882309F445C084E08093860280914D
:101D5000E10083FF27C08091E20083FF23C08091D0
:101D6000E100877F8093E10082E0809386021092F9
:101D700087028091E1008E7F8093E1008091E200F4
:101D80008E7F8093E2008091E20080618093E20088
:101D900042E060E080E00E9477048091F00088607B
:101DA0008093F000FF91EF91BF91AF919F918F9140
:101DB0007F916F915F914F913F912F910F900FBE47
:101DC0000F901F90189519BC109286021092610214
:101DD00076CF8091E30087FD93E090938602B7CFA2
:101DE00078941F921FB61F9211248F939F93AF93E5
:101DF000BF938091130290911402A0911502B091AB
:101E000016020196A11DB11D809313029093140236
:101E1000A0931502B0931602BF91AF919F918F913D
:101E20001F901FBE1F9018952FB7F8948091130232
:101E300090911402A0911502B09116022FBF08953F
:101E40000E94140F9C019091460280914702982BAA
:101E500021F03093440220934302909148028091F4
:101E60004902982B21F03093410220934002E091E7
:101E70002E02F0912F02309731F00480F581E02D91
:101E800085E492E00994089510920C0210920B02DE
:101E90000E94D10785E0E5E4F2E0DF011D928A951A
:101EA000E9F71092420210923F02109217020E942C
:101EB000200F90E080E00E94A20890E080E00C9467
:101EC0008C08CF92DF92EF92FF92CF93DF9300D0F6
:101ED00000D0CDB7DEB70E94280B6B017C0180914A
:101EE0005E02882321F080915F02811115C0C092AB
:101EF0005A02D0925B02E0925C02F0925D020E9474
:101F0000440F0F900F900F900F90DF91CF91FF90A3
:101F1000EF90DF90CF900895198282E08A83C70105
:101F2000B6010E947E078B838EEF8C8364E0CE0126
:101F300001960E94CA05DBCF0F931F9341E050E04A
:101F400060E070E004C0440F551F661F771F8A953C
:101F5000D2F7CB01BA01609570958095909500916C
:101F60005A0210915B0220915C0230915D02602365
:101F70007123822393231F910F910C94610F9091F1
:101F80000A028095892380930A02282F277071F412
:101F9000282F082E000C330B9217130639F0859565
:101FA000859585950E949C0F10920A0208950F93C3
:101FB0001F9341E050E060E070E004C0440F551F03
:101FC000661F771F8A95D2F780915A0290915B0223
:101FD000A0915C02B0915D028A019B01082B192B34
:101FE0002A2B3B2BC901B8011F910F910C94610F53
:101FF00060930F027093100280931102909312026B
:102000000C94440F10920D0280911501EAE6F1E064
:10201000882359F080912C0287FF07C08EE1DF01F1
:102020001D928A95E9F70C94440F86E0F8CF1F9330
:10203000CF93DF93CDB7DEB7AA970FB6F894DEBF84
:102040000FBECDBF88E892E02091F100FC01219302
:10205000CF01F2E080399F07B9F78091890289307A
:1020600009F444C018F5823009F4B9C0833009F48A
:102070006EC0813031F580918802813A11F58091EE
:10208000E800877F8093E80080918C0290918D0218
:10209000892B41F560E284E692E070E00E946905D8
:1020A0008091E8008B778093E8000BC08B3009F4B7
:1020B0006BC008F483C0823409F4A2C0853409F4EB
:1020C000BCC08091E80083FF50C28091880290914B
:1020D00089029A3008F049C2E92FF0E0E45EF74D3A
:1020E0000C94B62360E090E080E0D7CF8091880226
:1020F000813239F780918C0290918D02009711F016
:102100000297F9F68091E800877F8093E80080913C
:10211000E80082FF17C09091F3008091F2000297CF
:1021200029F48091F1008B7F813021F48091F100BE
:10213000809363028091E8008B778093E8000E948F
:102140005804BFCF809186028111E1CFBACF809130
:102150008802813A09F0B5CF80918C0290918D026E
:10216000892B09F0AECF8091E800877F8093E8004B
:102170008091E80080FFFCCF809115018093F100F1
:102180008091E8008E77D9CF80918802813209F062
:1021900098CF80918C0290918D02892B09F091CF7C
:1021A0008091E800877F8093E8000E945804809126
:1021B0008A02809315010E94021083CF80918802C9
:1021C000813209F07ECF8091E800877F8093E8001C
:1021D0000E94580480918B028093620272CF80919A
:1021E0008802813A09F06DCF8091E800877F809363
:1021F000E8008091E80080FFFCCF80916202BECFB2
:1022000080918802803C09F05CCF80918C02909193
:102210008D02029739F580918A0290918B02892B69
:1022200009F58091E800877F8093E8006BE170E01A
:102230008AE596E00E940A0582CF80918802803C60
:1022400009F03FCF80918C0290918D02079751F455
:102250008091E800877F8093E80062EB70E088EA75
:1022600095E0E8CF8091EB0080628093EB0029CF6E
:10227000803899F0823809F078C180918C028F7093
:10228000873008F072C18093E9008091EB0085FBF4
:10229000882780F91092E90006C08091840290910D
:1022A0008502911182609091E800977F9093E800F9
:1022B0008093F1001092F1008091E8008E7751C177
:1022C000882309F43FC1823009F04FC180918A020E
:1022D000811142C180918C028F702FEF280F263020
:1022E00008F043C18093E9002091EB0020FF34C146
:1022F000933031F48091EB0080628093EB002CC12D
:102300009091EB0090619093EB0021E030E001C0F0
:10231000220F8A95EAF72093EA001092EA00809152
:10232000EB008860EACF811120C110918A021F77EB
:102330008091E3008078812B8093E3008091E80016
:10234000877F8093E8000E9458048091E80080FF16
:10235000FCCF8091E30080688093E30082E011115C
:1023600083E08093860201C18058823008F0FDC06E
:1023700080918A0290918B028C3D23E09207A1F517
:1023800083E08A838AE289834FB7F894DE0113964B
:1023900020E03EE051E2E32FF0E050935700E4915B
:1023A00020FF03C0E295EF703F5FEF708E2F90E04B
:1023B000EA30C0F0C7968D939D932F5F243159F773
:1023C0004FBF8091E800877F8093E8006AE270E069
:1023D000CE0101960E9469058091E8008B77809379
:1023E000E800C3C0C096E7CF20918C0230918D02E7
:1023F000492F55274330510551F1A0F44130510583
:1024000009F459C06BE670E086E796E0423051056A
:1024100009F0ABC02091E800277F2093E8000E94DC
:102420000A05DACF4132510539F14232510591F1B5
:102430004F30510509F099C0E3E4F7E0649170E092
:1024400081E497E06115710509F48FC0E3CF992706
:102450008130910571F0009731F0029709F085C045
:10246000E3EFF6E002C0EDE3F7E0649170E0CF0146
:10247000E9CFEBE0F7E0F9CF2330310508F075C084
:10248000220F331FF901EF59FE4F8081918169E0DE
:1024900070E0C0CF2330310508F067C0F901EE0FBE
:1024A000FF1FE55AFE4F80819181285A3E4FF90166
:1024B000608170E0C7CF62E170E081EE96E0AACF64
:1024C000803809F052C08091E800877F8093E8004F
:1024D000809187028093F100EFCE811146C0109168
:1024E0008A02123008F041C08091E800877F809313
:1024F000E800109387020E945804112311F084E031
:1025000005C08091E30087FDFACF81E080938602C9
:1025100042E061EC81E00E94770442E061EC82E0FD
:102520000E94770442E261EC83E00E94770442E378
:1025300061EC84E00E94770442E360EC85E00E9455
:10254000770413C080918A02813079F481E093305E
:1025500009F080E0809385021092E9008091E80004
:10256000877F8093E8000E9458048091E80083FFF1
:102570000AC08091E800877F8093E8008091EB009B
:1025800080628093EB00AA960FB6F894DEBF0FBE70
:10259000CDBFDF91CF911F9108951F920F920FB67B
:1025A0000F9211242F933F934F935F936F937F93D9
:1025B0008F939F93AF93BF93CF93DF93EF93FF934B
:1025C000D091E900DF708091EC00C82FC17080FDD0
:1025D000C0E81092E9008091F000877F8093F000BE
:1025E00078940E9417101092E9008091F0008860A2
:1025F0008093F000CD2BCF70C093E900FF91EF9155
:10260000DF91CF91BF91AF919F918F917F916F910A
:102610005F914F913F912F910F900FBE0F901F90A0
:1026200018958823B1F19CEF980F913A38F4682FF0
:1026300088E691E00E941F070C94D10790E2980F62
:10264000983088F4877021E030E0A90102C0440F7F
:10265000551F8A95E2F7CA01809590910D02892352
:1026600080930D02E9CF9BE5980F933020F490E022
:1026700080E00C94A20898E5980F973120F490E040
:1026800080E00C948C08803F20F00E94E1050C94BF
:10269000200F0895CF93C82F882309F46EC08CEFC4
:1026A0008C0F813AB8F580911501882311F1809142
:1026B0002C0287FF1EC0EC2FE695E695E695F0E02C
:1026C000E859FE4F828190E04C2F477021E030E0C6
:1026D00002C0220F331F4A95E2F782239323892BEE
:1026E00089F06C2F88E691E00E941F070E94D107B5
:1026F00009C0EAE6F1E08191C81799F381E0E0377B
:10270000F807C9F76C2F88E691E00E944907CF913E
:102710000C94D10780E28C0F883068F4C77021E0F8
:1027200030E001C0220FCA95EAF780910D02822B9A
:1027300080930D02ECCFEBE5EC0FE33040F4F0E0DA
:10274000E95DFE4F808190E0CF910C94A208E8E50E
:10275000EC0FE73150F4F0E0EE0FFF1FE65DFE4FA7
:1027600080819181CF910C948C08C03F30F08C2FE8
:102770000E94A806CF910C94200FCF910895CF937B
:10278000C82F0E944A13C93349F42FEF87EE93E014
:10279000215080409040E1F700C000008C2FCF9185
:1027A0000C9411130F931F93CF93DF93C62FD42F45
:1027B000022FFC0182818823A1F0609392020E9483
:1027C000140F9093910280939002C77081E001C032
:1027D000880FCA95EAF7DF91CF911F910F910C9462
:1027E000820880919202681335C080919002909186
:1027F00091020E941007883C910560F510E21D0FC0
:10280000CD17B9F080E28C0F883040F4C77081E0BA
:1028100001C0880FCA95EAF70E947708183048F47B
:1028200081E09D2F977001C0880F9A95EAF70E946A
:102830008208802F0E94BF13183098F4D77081E06F
:1028400001C0880FDA95EAF7DF91CF911F910F91C0
:102850000C947708C77081E001C0880FCA95EAF729
:10286000F3CFDF91CF911F910F9108950F931F9395
:10287000CF93DF938C01EB018091080182FF2FC081
:102880008B7F80930801809198012091960130916F
:102890009701AB01421B530B2091060130910701B8
:1028A0004217530788F40E944A13809108018D7FD4
:1028B00080930801809198010E94111380910C026D
:1028C0008D7F80930C0215C090910C0292609093C2
:1028D0000C020E944A13809108018260E9CF802F88
:1028E0000E9411138091980190919901081719077E
:1028F00029F30E94D107D0939701C0939601DF91ED
:10290000CF911F910F910895FF920F931F93CF9333
:10291000DF93E82FF0E0EA53FE4FF490C82FC695FE
:10292000C695C695D0E0FE01EA54FE4F049187702B
:1029300010E0082E02C0159507950A94E2F7017081
:102940001127CA55DE4FFE01C491D0E002C0D595D3
:10295000C7958A95E2F7C170DD270115110519F0B9
:1029600081EE0E944A13209719F086EE0E944A13C6
:102970008F2D0E94BF13CD2B19F086EE0E941113EC
:10298000012B41F081EEDF91CF911F910F91FF90CC
:102990000C941113DF91CF911F910F91FF90089527
:1029A000FF920F931F93CF93DF938C018AE0F82E51
:1029B000F8018491882309F44BC0813009F044C0A8
:1029C000E8012196FE018491813049F42196FE01AF
:1029D00084910E94BF138E010F5F1F4FE9CF823099
:1029E00039F4E8012296FE0184910E944A13F3CF44
:1029F000833039F4E8012296FE0184910E9411137C
:102A0000EACF843041F7E8012296FE01249190E05C
:102A100080E0FE0131962053330B2A30310548F017
:102A20000197C8F2EFE9FFE03197F1F700C000002D
:102A3000F7CFF89EA001F99E500D1124C901840F13
:102A4000951F2491EF01E5CF0E948414E801C3CFC4
:102A5000DF91CF911F910F91FF9008954F925F9258
:102A60006F927F928F929F92AF92BF92CF92DF929E
:102A7000EF92FF920F931F93CF93DF93CDB7DEB703
:102A800028970FB6F894DEBF0FBECDBF7C01FC01C6
:102A900083819481892B39F01081D180812F8D2100
:102AA0008F3F09F0C0C528960FB6F894DEBF0FBE61
:102AB000CDBFDF91CF911F910F91FF90EF90DF90ED
:102AC000CF90BF90AF909F908F907F906F905F90CE
:102AD0004F9008950E94A30A082F682F89819A8138
:102AE0000E943F08E12FF0E026E0D29EE00DF11DAC
:102AF000112434E5039FE00DF11D1124EE0FFF1F9B
:102B0000E05AFD4F0591149180915E02882321F0D7
:102B100080915F02811174C50A32FDE51F0709F03B
:102B20009AC0F70182818823C9F180911A0291E04D
:102B3000980F9770887F953008F4892B80931A023C
:102B400080911A028770FFEF8F9FC0011124959525
:102B5000879595958795992790938900809388000C
:102B600090938B0080938A0090938D0080938C00CB
:102B700040911A0250911B0260911C0270911D023B
:102B80008FE090E00E94192460915A0270915B02DC
:102B900080915C0290915D020E94280B0E94140FAC
:102BA0006C01F70182818823F9F08091080182FF8E
:102BB00005C0B60190E080E00E94361480910C02BE
:102BC0008D7F80930C020931FCE51F0709F4D5C005
:102BD00008F05CC007313CE5130709F4BEC00831BA
:102BE0008CE5180709F4C3C00933110508F02FC19B
:102BF0000D32110528F4C8010497849708F02BC101
:102C0000F7018281882309F43FC18091080180FF88
:102C10004EC090910D0291114AC0109399010093FA
:102C20009801D0929701C092960184608093080128
:102C300082E00E94BF0F80910A02877009F433CFAF
:102C4000F7018281882309F42ECF82E00E94BF0F12
:102C50002ACF81E1DBC40D322DE5120769F00E3277
:102C60003DE5130709F09ACFF7018281882309F423
:102C700095CF86E492E007C0F7018281882309F4AA
:102C80008DCF80E592E00E94D01488CF0B319CE577
:102C9000190709F45EC008F455C0809108018E7FC1
:102CA0000C31FCE51F0709F09FCF80930801F70165
:102CB0008281882309F4CBC4109292020230FCE591
:102CC0001F0708F4E1C106312CE5120738F098011E
:102CD0002B5F3C452730310508F0D6C10E94780BA8
:102CE00090932D0280932C020F303CE5130709F4DA
:102CF000ACC108F026C108309CE5190709F48FC162
:102D000008F0FBC00430FCE51F0709F47CC108F0A3
:102D1000E1C002303CE5130709F46DC103301C45E6
:102D200009F46DC160912C0210912D0284E090E0B5
:102D30000E940724612F81E290E00E9407240E94F4
:102D4000021079CF90910801892F8E7F90FF8160CA
:102D5000ACCF809108018160A8CF8091060190914D
:102D6000070105969093070180930601A0CF8091FB
:102D70000601909107010597F5CF809107018F9388
:102D8000809106018F9386E191E09F938F931F922C
:102D900088E08F93BF92AF920E9466250FB6F89499
:102DA000DEBF0FBECDBF65015AE0952EF6018081D2
:102DB000882309F47CCF813009F046C0918182815B
:102DC000913049F4F2E0CF0ED11C0E94BF13EFEF17
:102DD000CE1ADE0AEBCF923031F422E0C20ED11CC3
:102DE0000E944A13F4CF933031F432E0C30ED11C69
:102DF0000E941113ECCF943021F08FEFC81AD80A3B
:102E0000E6CF92E0C90ED11C30E020E0A6014F5F72
:102E10005F4F8053990B8A30910550F02150310952
:102E2000B0F28FE99FE00197F1F700C00000F6CF04
:102E3000929EB001939E700D11249C01260F371FA6
:102E4000F60181816A01E2CF0E948414C0CF04366A
:102E5000110509F4D5CE043FFCE51F0761F1C8F464
:102E6000093D3CE5130719F10A3D8CE5180779F196
:102E7000083D9CE5190709F01ACF26E241EE61EE04
:102E8000C7010E94D213D7CEB601C8010E943614E2
:102E9000D2CE063FECE51E07B1F088F0073F2CE5E7
:102EA000120709F004CF27E245EE66EEE9CF27E2EC
:102EB00045EE65EEE5CF26E241EE60EEE1CF27E29A
:102EC00045EE64EEDDCF26E241EE62EED9CF28E298
:102ED00041E0EFCF80912C02806106309CE519071C
:102EE00009F447C080912C02886007301C4508F423
:102EF00040C080912C0280623CC00B30FCE51F0773
:102F000009F49BC068F409303CE5130709F48BC051
:102F10000A301C4509F006CF80912C028C6029C034
:102F200080912C028B7F0D309CE5190711F1809167
:102F30002C028D7F0E301C45E0F080912C02877FA3
:102F400018C00B3FFCE51F0709F461C060F50231B2
:102F50003CE5130709F481C078F400319CE51907BA
:102F600009F477C080912C028F7B01311C4509F058
:102F7000D9CE80932C02D6CE0431FCE51F0709F48C
:102F80007AC008F470C005311C4509F0CBCE8091A1
:102F90002C0282FB992790F921E0922790FB82F97D
:102FA00090FB83F9E6CF0E3F8CE5180709F449C082
:102FB00070F40C3FECE51E0771F180912D028E7FBD
:102FC0000D3F1C4509F0AECE80932D02ABCE01150E
:102FD0002DE5120709F44BC060F101301D4509F0E1
:102FE000A1CE80912D02982F909591708E7F892B84
:102FF00090FB81F9E9CF80912C028160BACF80915A
:103000002C028260B6CF80912C028460B2CF809176
:103010002D028160D9CF80912D028260D5CF809121
:103020002C028064A6CF0E94021080912C0280683E
:10303000A0CF80912D028360C7CF80912C028E7F1C
:1030400098CF80912D028D7FBFCF80912C028F7EF3
:1030500090CF80912C028F7D8CCF0E9402108091A6
:103060002C028F7786CF80912C02837F82CF809134
:103070002D028C7FA9CF0E94021090912C02892FE3
:1030800097FB87F9805875CF06319CE5190709F041
:10309000ECC280910D028A7A91E009F490E090935D
:1030A0009A0169E2811165E388E691E00E9449078F
:1030B0000E94D107C0CD0E949C0CBDCD80916002C2
:1030C00091E0892780936002B6CDF70100811181DC
:1030D000882309F43DC0C8010E94A30AD82E682F96
:1030E000C8010E943F08B8018D2D0E9407098C017C
:1030F000682EF701858082944FE08422D280D1101F
:1031000010920C0280910A02877099F0DD2089F0FC
:10311000812F807F803421F080E2800F883048F05A
:1031200082E00E94BF0F80910A028770CC24C39472
:103130008111C12C912E92943FE09322FBE0F9156E
:1031400008F440C0E92DF0E0EA5DF74D0C94B62399
:10315000C8010E941608D82EC6CF212F2F70822EAC
:10316000107F19F0829420EF8222DD20C9F08820A0
:1031700069F080E2800F883010F061100BC0809100
:103180000D02882A80920D020E94D107802F0E9492
:103190004A1318C080910C02882A80920C02F4CF46
:1031A000802F0E941113882069F08094005E0830FF
:1031B00010F0611045C080910D02882280920D02AE
:1031C0000E94D107292D2850330B2430310510F4EB
:1031D0000E94B808CC20A9F080910A0280FD11C09D
:1031E000F70112828595859585950E94D70FC701B5
:1031F0000E942E1580910A028595859585950E94DD
:103200009C0F85E0F701D50101900D928A95E1F7B9
:1032100089819A810E9416089A81E981F0E026E06E
:10322000929FE00DF11D112434E5839FE00DF11D07
:103230001124EE0FFF1FE05AFD4F8591949133CC7E
:1032400080910C02882280920C02BACF312F3F70FD
:10325000732E107F103219F0729490EF792266204D
:1032600041F081E0681631F1DD2079F1882041F1EB
:103270008DCFDD2091F090910E02892F872981104A
:1032800003C00E9482089ECFE1E08E12FACF981709
:1032900009F498CF80930E0295CF811006C00E944A
:1032A000CB07872D0E9477088DCFF1E08F1609F4A8
:1032B00089CFF5CFDD2031F021E0281508F482CF49
:1032C000872DDFCF81107ECFECCF882051F339E3FB
:1032D00063128FC18FEF97EEE3E081509040E040A2
:1032E000E1F700C0000085C1812F86958695837027
:1032F00061F0813009F066CFC8019370D11002C02F
:1033000090E080E00E948C085DCFC8019370D110DE
:1033100002C090E080E00E94A20854CF802FDD2000
:1033200029F00E94A8060E94200F4CCF0E94E105C0
:10333000FACF812F837009F066C0D11043CF802F60
:10334000829586958770880F880F602F6F70462E44
:10335000512C712C612C082E04C0440C551C661C89
:10336000771C0A94D2F740E050E0BA0104FF0FC086
:103370004FE050E060E070E004C0440F551F661F4E
:10338000771F8A95D2F74095509560957095812F5B
:10339000869586958370823019F1D8F400910F02DA
:1033A000109110022091110230911202813069F0C7
:1033B0004429552966297729CB01BA016023712355
:1033C000822393230E94F80FFDCE402A512A622ABD
:1033D000732ACB01BA016429752986299729F2CF6E
:1033E000442955296629772900910F02109110026E
:1033F0002091110230911202CB01BA01602771278E
:1034000082279327DFCF8695DD2011F0812F8170F1
:10341000882309F4D7CE802F829586958770880FF0
:10342000880F602F6F70462E512C712C612C082E46
:1034300004C0440C551C661C771C0A94D2F740E06B
:1034400050E0BA0104FF0FC04FE050E060E070E0D0
:1034500004C0440F551F661F771F8A95D2F7409509
:10346000509560957095812F8695869583708230F2
:1034700019F1D8F400915A0210915B0220915C027C
:1034800030915D02813069F04429552966297729F8
:10349000CB01BA0160237123822393230E94610F21
:1034A00091CE402A512A622A732ACB01BA0164299B
:1034B000752986299729F2CF442955296629772924
:1034C00000915A0210915B0220915C0230915D02E2
:1034D000CB01BA016027712782279327DFCF1F70A6
:1034E000DD2029F0812F0E94D70F802FCACE802F98
:1034F0000E947708812F0E949C0F64CE802FF2EFEC
:103500006F1609F44EC0F61578F020EF621619F127
:1035100031EF631609F43DC0DD2009F465C0811068
:1035200035CE812F8F713AC093EF691609F43EC0F2
:10353000E4EF6E12F1CFDD2009F44BC01F71812F33
:103540000E94D70F28E0129FC0011124836080934E
:103550000A02812F23C0DD20B9F0811033CE1F7104
:1035600061E070E080E090E004C0660F771F881F84
:10357000991F1A95D2F700915A0210915B0220917F
:103580005C0230915D02A6CFF1E0F81508F41ACE86
:10359000E6CF812F8F71DD2009F4ADCF0E94D70FC8
:1035A00011CE812F8F71DD20C9F3A5CF60E070E0CF
:1035B000CB01DD2009F472CF1F7161E070E080E083
:1035C00090E004C0660F771F881F991F1A95D2F7E5
:1035D00065CF81E00E94BF0F31E0381508F0F2CDD1
:1035E00082E00E94BF0FEECD882039F0893309F4C4
:1035F00071CE802F0E941113E5CD812F8F717BCF6B
:103600001982F7018281811124CB82E18A83F7013B
:1036100080818B8381818C838EEF8D8365E0C501F2
:103620000E94CA0579CA85E09E012F5F3F4F59016C
:10363000D90101900D928A95E1F7F70122818981E4
:103640009A81211147CA0E941608082F4BCA0631D9
:103650001C4509F03ACD80919A0169E2811165E338
:1036600088E691E00E941F0723CD0F3D2CE512074D
:1036700009F421CD09303DE5130709F41FCD0115EB
:103680001C4509F022CD0E940210EFEFF4E32CE07C
:10369000E150F0402040E1F700C00000F89481E0E4
:1036A0008093E00080E28093D8001092C9008FE1FF
:1036B0009EE40197F1F700C000001DBA1092680067
:1036C0001CBC10BE1FBA10927A0010926E001092AD
:1036D0006F0010927100109272001092C900109247
:1036E000BC0014B817B81AB81DB810BA1092BC00B4
:1036F00015B818B81BB81EB811BA0C94003F9BCA75
:103700001F93CF93DF938091A001807FA9F48091D4
:103710009D01882389F08091D201D091A10160910F
:103720009B0170919C01A0919E01B0919F01C62FB9
:10373000C72316E0D81304C0DF91CF911F910895DD
:1037400090E0109711F0CF3F19F401968770F2CFF7
:10375000189F9001199F300D1124F901EE55FE4F6D
:1037600041814713F2CF40814613EFCF428141118F
:10377000ECCF438154814A1B5B0B483C510528F731
:103780008091A0018F7080618093A001F901E955BB
:10379000FE4F80818F70806180838BE991E00E9471
:1037A0002E15DF91CF911F910C946D08AF92BF92AF
:1037B000CF92DF92EF92FF920F931F93CF93DF93FD
:1037C000CDB7DEB761970FB6F894DEBF0FBECDBFA1
:1037D0008C0185E0F801DE011D9601900D928A951D
:1037E000E1F7F80180819181E2802BE9A22E21E0AE
:1037F000B22E60919E0170919F016115710509F4CF
:103800003EC130919B0140919C01232F24232F3FE7
:1038100009F435C1C380D480F0909D01F601E61B08
:10382000F70BFF2009F4FBC02091A001522F507F1D
:10383000E83CF10508F0BBC0511178C0FE2C4913DB
:1038400021C038131FC0E1101DC02F7020612093CC
:10385000A001C5010E942E158091A001F801858369
:103860008F2D61960FB6F894DEBF0FBECDBFDF91EE
:10387000CF911F910F91FF90EF90DF90CF90BF906D
:10388000AF900895CD2829F0282F29232F3F09F044
:1038900014C120E0F22FF170DF2E20FF3DC02091F7
:1038A000D2014091A10156E0241315C08D879E8757
:1038B0008D859E850E94E50A292F22952F70223042
:1038C000F8F0243020F59F70F9F0F8019581907F91
:1038D000D9F4D12C1FC030E0529FF001539FF00D5E
:1038E0001124EE55FE4F6181961306C06081861348
:1038F00003C06281E61210C02F5F3F4F2770D4CF04
:103900009F7011F0882329F3805E883010F3C8017E
:103910000E942E15FD2CA4CFEE2009F4A1CF80919A
:10392000A00181608093A001F12C9ACF491312C0AD
:10393000381310C0E1100EC0F8012583C8010E94A1
:103940002E1586E0F801ABE9B1E001900D928A9561
:10395000E1F786CF8D879E878D859E850E94EF0A31
:10396000882309F1EE20F9F08091A001803270F0F7
:1039700020919B0130919C0138872F831986DB862B
:10398000CA868C87CE0107960E942E1586E0F80124
:10399000ABE9B1E001900D928A95E1F70E94801B9E
:1039A000FF24F3945DCFC8010E942E15F9CF511169
:1039B0000AC08BE991E00E942E1586E0F501119274
:1039C0008A95E9F7B1CF49130FC038130DC0E11044
:1039D0000BC0F8012583C8010E942E1586E0F50171
:1039E00011928A95E9F73CCF8D879E878D859E85BC
:1039F0000E94EF0A8823B9F2EE20A9F28091A0017B
:103A0000803220F220919B0130919C013A832983DE
:103A10001B82DD82CC828E83CE010196B5CFE83C3D
:103A2000F105E0F6FE2CEE2009F4BDCF491316C0D7
:103A3000381314C08091A00180FD83CF982F907F10
:103A400009F47FCFF8018583903F09F477CF982F51
:103A5000907F905F8F70892B858370CF8D879E8735
:103A60008D859E850E94EF0A811190CF8091A001E3
:103A700081608093A001C8010E942E15F1CEEE2036
:103A800009F491CF8D879E878D859E850E94EF0AD0
:103A9000F82E882309F487CF86E0F801ABE9B1E07E
:103AA00001900D928A95E1F780919B0190919C0184
:103AB0000E94E50A0E94801BD3CE21E02E25EACE8B
:103AC0001F93CF93DF93CDB7DEB767970FB6F89408
:103AD000DEBF0FBECDBF4B8B5C8B6D8B7E8B8F8B18
:103AE0001A8A198A85E0FE017396DE011D960190FF
:103AF0000D928A95E1F786E0FE013D96DE0117966C
:103B000001900D928A95E1F7CE0107960E94D61B8F
:103B1000811112C086E0FE013796DE0111960190F8
:103B20000D928A95E1F78A859B85892B29F08F81F3
:103B3000988589238F3FB1F516E08091D20190914D
:103B4000A10189131DC067960FB6F894DEBF0FBEA2
:103B5000CDBFDF91CF911F91089596E0929FD00144
:103B6000939FB00D1124AE55BE4FFE0131960190CA
:103B70000D929A95E1F78093A1010E946D08DCCF28
:103B8000819FC00111248E559E4F0E94D61B882311
:103B9000D1F28091D20190E00196877099278093AD
:103BA000D201CBCF2091A10130E0C90101968770ED
:103BB00099274091D2014817190679F60E94021000
:103BC0001092A1011092D20186E0EBE9F1E0DF0151
:103BD0001D928A95E9F7B0CF8F929F92BF92CF92B4
:103BE000DF92EF92FF920F931F93CF93DF93809119
:103BF000090190910A01892B91F0809189018F5FD1
:103C00008093890181110BC00E946B0D90E090930D
:103C10000A0180930901892B11F40E94220C2EE1E4
:103C2000822E22E0922E740110E000E097E0C92E6F
:103C3000C00E802F0E94170D8C2D0E94170D802F13
:103C40000E94E20DE70199917E01D12C891729F09C
:103C5000FE0131978083DD24D3948C2D0E94E20DE8
:103C6000F7019681891709F47CC0868381E08D294C
:103C7000182B0E945C0B0F5F0730C1F60E94140FD7
:103C800060918B0170918C0190938C0180938B01DA
:103C900020918A0130E0261B370B820F931F6BEFB8
:103CA00070E00E948E23E82E392F082F80938A011E
:103CB000F0908E01FF2009F4A5C010928E01E091D2
:103CC0001802F0911902AF01425F5F4F20E08BEFC5
:103CD000B82E6BEF70E0A191AB3FA1F0CA2ED12CB2
:103CE0008E2D932F0A1708F43EC08C199D09092EBA
:103CF000000CAA0BBB0B0A97A105B105D0F1DF019F
:103D00001197BC924E175F0731F720938E01111166
:103D100002C0211179C010928D01A0911802B091BA
:103D2000190290918E01E1E3F2E04FE352E080E06E
:103D30003191E40129914E01321751F03C913B3F02
:103D4000D1F40C93BF0161507109EB01288391E01C
:103D500011964E175F0761F790938E0180938D0146
:103D600057C080E084CFDB01AC19BD098A0F9B1FCF
:103D7000BECF2F2DC7CF81E0EBCF9170892B09F4F7
:103D800073C080919001909191018130984780F0AB
:103D90001092600260915A0270915B0280915C0205
:103DA00090915D020E94280B109291011092900157
:103DB000809190019091910101969093910180934F
:103DC0009001812FDF91CF911F910F91FF90EF9084
:103DD000DF90CF90BF909F908F9008950E94220B0C
:103DE0004AC0892B71F31092910110929001609159
:103DF0005A0270915B0280915C0290915D020E9478
:103E0000280BDFCF111187CF80918D01811183CFD6
:103E10008091080182FF17C00E94140F2091960123
:103E200030919701AC01421B530B20910601309158
:103E300007014217530738F0BC0180919801909117
:103E400099010E94361480919001909191012091E6
:103E50006002222331F2009709F08FCF0E94190BE4
:103E60000E94160B0E94130BC0918F01CC2309F402
:103E7000B5CF0E94160B81E0C827C0938F0181CF78
:103E8000CDB7DEB7C955D1090FB6F894DEBF0FBE66
:103E9000CDBF84B7877F84BF0FB6F894A895809173
:103EA0006000886180936000109260000FBE80E81F
:103EB00090E00FB6F89480936100909361000FBE7C
:103EC00085B7806885BF85B7806885BF0E94DC03A1
:103ED0000E94A9048091E20084608093E2007894BB
:103EE000809186028823A1F01091E9001F709091C3
:103EF000EC00892F817090FD80E8182B1092E9006A
:103F00008091E80083FD0E9417101F701093E90054
:103F100082E084BD93E095BD9AEF97BD80936E00DB
:103F20000E946B0D90E090930A01809309010E941A
:103F30005C0B0E946B0BEEE1F2E061E3662E62E047
:103F4000762E8CE292E0D30111921D928E179F077C
:103F5000D9F78EE090E00E943B2480931802909362
:103F60001902FC010E962BEF21938E179F07E1F7A4
:103F700090E080E00E9401248F3E9E4F11F00E944D
:103F80009C0C89EA8093800089E0809381002498CA
:103F90002C983F988AB18F7C8AB96E98479A8BB1DA
:103FA00080638BB9769A8FE090E00E94FB23609348
:103FB0001A0270931B0280931C0290931D0267707B
:103FC0004FEF649FB00111247595679575956795BE
:103FD0007727709389006093880070938B006093BB
:103FE0008A0070938D0060938C000E94220C90E0F8
:103FF00080E00E9401248F3E9E4F11F00E949C0C95
:1040000082E090E00E94F32380934B020E94780BA1
:1040100090932D0280932C0283E090E00E94F32382
:10402000682F70E090E080E00E94F80F60915A02E3
:1040300070915B0280915C0290915D020E94280B5E
:104040008BE091E090932F0280932E0228E1C22E04
:10405000D12C3FE3A32E32E0B32E41E4842E912CE9
:104060008C0E9D1EF2E08F0E911C80918602853091
:1040700081F480E4F82E9EE0E92EE60C00E112E1E6
:1040800080918602853009F452C10E9402100E947C
:10409000B8080E94EC1DECE4F2E0A1E3B2E010E00D
:1040A00000E0302F8D912191281709F48AC190E00A
:1040B000FF24F3942827422F4F2109F47DC16196F4
:1040C0009FAF619762963FAF62978F2191E009F4AD
:1040D00090E063969FAF63970E94140F8160782FE2
:1040E00065969FAF8EAF659761964FAD619762966B
:1040F0005FAD629763966FAD639765968FAD659779
:104100000E94601DF801E45BFD4F8081F826F0827B
:1041100085E0E5E4F2E0DE01119601900D928A95CA
:10412000E1F7F0904602E0904702109148020091BA
:1041300049021092460210924702109248021092D1
:1041400049028F2D8E2909F448C080914302909135
:1041500044020E9410079C0190914202992309F4A5
:10416000F9C125313105C8F19F3F19F09F5F909348
:104170004202FF2059F00E9484069FEF1F140CF4A6
:1041800091E0899F802D112480934602EE2059F002
:104190000E9484069FEF1E140CF491E0899F802DED
:1041A000112480934702309146023323B1F02091CD
:1041B0004702222391F045EB3403C00111249923D7
:1041C00009F426C19093460245EB24039001112483
:1041D000332309F421C130934702812F802B09F446
:1041E00048C080914002909141020E9410079C01BA
:1041F00090913F02992309F4A8C125313105C8F1F6
:104200009F3F19F09F5F90933F02112359F00E9446
:1042100064069FEF11160CF491E0899F802D112404
:1042200080934802002359F00E9464069FEF101605
:104230000CF491E0899F802D1124809349023091E4
:1042400048023323B1F020914902222391F045EB3B
:104250003403C0011124992309F4E2C09093480269
:1042600045EB240390011124332309F4DDC030937E
:1042700049028091460290914702892B9091480211
:10428000892B90914902892B11F00E94200F85E023
:10429000FE013196A5E4B2E001900D928A95E1F716
:1042A0000E94B80890914A02891721F00E94B8082C
:1042B00080934A0280918602843009F0D6CE85E050
:1042C0008093E9008091E80082FFCFCE8091E800E2
:1042D00090E085FF06C00E94FB03882309F4A8C074
:1042E00091E08091E8008B778093E800992309F4AE
:1042F000BCCE19811111B8C080916002882309F4E5
:10430000CEC01092600281E080935F0222961FAEC1
:10431000229723961FAE23978EEF24968FAF249774
:1043200063E0CE018F5B9F4F0E94CA059ECE8091B5
:104330008602843009F1109230020FB6F894A895E5
:10434000C09260000FBEF092600083B7817F8460EE
:1043500083BF83B7816083BF7894889583B78E7F4E
:1043600083BF0FB6F894A895809160008861809310
:104370006000109260000FBE80918502882309F4CE
:104380007FCE0E946B0D90E090930A01809309010B
:104390000E945C0B0E946B0BE1E3F2E01192AE16FF
:1043A000BF06E1F70E94EC1DE1E3F2E0819181118B
:1043B000B6C0EE12FBCF64CE9F5FFF0C963009F0C3
:1043C0007ACE0F5F1F4F0E30110509F06ACE8FEFC6
:1043D00066968FAF669767968FAF679768961FAEA2
:1043E00068970E94140F8160782F6A969FAF8EAFF6
:1043F0006A9766964FAD669767965FAD67976896C2
:104400006FAD68976A968FAD6A970E94601D80CEE7
:1044100081E080934602D8CE81E080934702DDCED2
:1044200081E0809348021CCF81E08093490221CF34
:1044300000E410E0CE0101967C018091E80085FD4A
:104440000AC08091E8008B778093E8000E94FB030C
:10445000882399F345CF8091F100F70181937F0183
:104460000150110951F73CCF1130C9F422961FAE0B
:10447000229723961FAF23978CE0EBE1F1E0D40164
:1044800001900D928A95E1F78EEF60968FAF60975D
:104490006FE0CE018F5B9F4F0E94CA05E6CD8091F1
:1044A0005F028823D1F1123041F01330F9F081E03E
:1044B00022968FAF229761E034CF60915A027091BB
:1044C0005B0280915C0290915D020E947E072296C1
:1044D0001FAE229723961FAF239724968FAF249762
:1044E0008EEF25968FAF259764E01BCF8A818130B0
:1044F00041F0882341F08230D1F681E080935E0262
:1045000002C010925E0222961FAE229783E023968D
:104510008FAF239780915E02E0CF8FEFC9CF09BDA7
:1045200019BD09B400FEFDCF8091D8008F7D809326
:10453000D8008091E00082608093E0008091E000EC
:1045400081FDFCCF0E9402109BCD2139314008F043
:1045500059CE8FCE232B09F009CE3FCE1F921FB626
:104560001F9211248F939F93AF93BF93809130023A
:10457000811113C08091130290911402A091150231
:10458000B09116024196A11DB11D80931302909324
:104590001402A0931502B0931602BF91AF919F91A0
:1045A0008F911F901FBE1F9018951092B9008CE03C
:1045B0008093B8000895EF92FF920F931F93CF93CB
:1045C000DF93182FEB011092BC0084EA8093BC00AB
:1045D0000E94140F7C018091BC0087FF27C080914E
:1045E000B900887F883029F08091B900887F8031B8
:1045F000D9F51093BB0084E88093BC000E94140F8F
:104600008C018091BC0087FF24C02091B900287FD5
:1046100090E080E02831B1F081E090E0203411F4A6
:1046200090E080E09195819591090CC0CF3FDC0727
:1046300091F20E94140F8E199F098C179D0758F252
:104640008EEF9FEFDF91CF911F910F91FF90EF9031
:104650000895CF3FDC07A9F20E94140F801B910B35
:104660008C179D0770F2ECCF8FEF9FEFEBCF0F937E
:104670001F93CF93DF93EB018093BB0084E880937B
:10468000BC000E94140F8C018091BC0087FF11C0F8
:104690002091B900287F81E090E0283211F490E069
:1046A00080E0919581959109DF91CF911F910F91B4
:1046B0000895CF3FDC0741F30E94140F801B910B3C
:1046C0008C179D0708F38EEF9FEFEECF0F931F938C
:1046D000CF93DF93EC0184E88093BC000E94140F19
:1046E0008C018091BC0087FF08C08091BB0090E0E6
:1046F000DF91CF911F910F910895CF3FDC0789F390
:104700000E94140F801B910B8C179D0750F38EEFA6
:104710009FEFEECF84E98093BC000895AA1BBB1BDA
:1047200051E107C0AA1FBB1FA617B70710F0A61BB1
:10473000B70B881F991F5A95A9F780959095BC01D2
:10474000CD01089597FB072E16F4009407D077FD4E
:1047500009D00E948E2307FC05D03EF490958195E8
:104760009F4F0895709561957F4F0895EE0FFF1F3D
:104770000590F491E02D09942F923F924F925F9211
:104780006F927F928F929F92AF92BF92CF92DF9261
:10479000EF92FF920F931F93CF93DF93CDB7DEB7C6
:1047A000CA1BDB0B0FB6F894DEBF0FBECDBF09945A
:1047B0002A88398848885F846E847D848C849B84B1
:1047C000AA84B984C884DF80EE80FD800C811B81BF
:1047D000AA81B981CE0FD11D0FB6F894DEBF0FBEEE
:1047E000CDBFED010895F999FECF92BD81BDF89A34
:1047F000992780B50895A6E1B0E044E050E00C941C
:104800002D24A8E1B0E042E050E00C942D24262FA6
:10481000F999FECF92BD81BDF89A019700B40216B6
:1048200039F01FBA20BD0FB6F894FA9AF99A0FBE64
:1048300008950396272F0E9408240E940724252FFD
:104840000E940824242F0C9408240196272F0E94EC
:1048500008240C940724DC01CB01FC01F999FECF5C
:1048600006C0F2BDE1BDF89A319600B40D924150F8
:104870005040B8F708950F931F93CF93DF93823082
:10488000910510F482E090E0E0919502F09196029B
:1048900030E020E0B0E0A0E0309799F42115310538
:1048A00009F447C0281B390B24303105C0F58A8133
:1048B0009B816115710571F1FB0193838283FE0178
:1048C00011C0408151810281138148175907F8F0C6
:1048D0004817590799F4109761F012960C931297A4
:1048E00013961C933296CF01DF91CF911F910F91B8
:1048F00008950093950210939602F4CF2115310587
:1049000019F04217530718F49A01BD01EF01DF01B6
:10491000F801C2CF9093960280939502D0CFFE010A
:10492000E20FF31F81939193225031093983288339
:10493000DACF2091930230919402232B41F42091FD
:10494000020130910301309394022093930220914D
:104950000001309101012115310541F42DB73EB719
:104960004091040150910501241B350B40919302A5
:10497000509194024217530708F0B5CF241B350B12
:104980002817390708F4AFCFBC016E5F7F4F261799
:10499000370708F4A8CF640F751F709394026093D3
:1049A0009302FA01819391939ECFCF93DF93009767
:1049B000E9F0FC01329713821282C0919502D091E6
:1049C0009602DE0130E020E02097A1F420813181C1
:1049D000820F931F20919302309194022817390778
:1049E00009F067C0F0939402E0939302DF91CF91B6
:1049F0000895DA01AE17BF0708F040C012964D9136
:104A00005C9113979D014115510599F7D9011396B2
:104A1000FC93EE9312974D915D91A40FB51FEA1789
:104A2000FB0779F4808191810296840F951FD9014B
:104A300011969C938E938281938113969C938E936F
:104A40001297B0E0A0E08A819B810097B9F5FE0142
:104A500081919191E80FF91F8091930290919402B6
:104A60008E179F0719F6109761F510929602109213
:104A70009502D0939402C0939302B8CFB383A283DC
:104A800040815181840F951FA817B90771F44E5FBB
:104A90005F4F8D919C911197480F591F518340830F
:104AA00012968D919C91938382832115310509F093
:104AB000ADCFF0939602E093950298CFDE01EC0122
:104AC000C2CF13961C921E921297D3CFAEE0B0E0E5
:104AD000ECE6F5E20C94CA230D891E898F89988D26
:104AE00026E02C831A83098397FF02C080E090E8B8
:104AF00001979E838D83AE01455E5F4F698D7A8DF0
:104B0000CE0101960E9496254D815E8157FD0AC017
:104B10002F813885421753070CF49A01020F131F97
:104B2000F80110822E96E4E00C94E623ABE0B0E0AE
:104B3000ECE9F5E20C94BC237C013B018A01FC0109
:104B400017821682838181FFB9C19AE0292ECE0196
:104B500001965C01F7019381F30193FD859193FF29
:104B600081913F01882309F446C1853239F493FDD0
:104B7000859193FF81913F01853229F4B70190E03F
:104B80000E947727E7CF912C412C512CFFE1F5159E
:104B900038F08B3209F188F4803201F1833221F14F
:104BA00057FC3AC020ED280F2A3040F556FE1FC0B2
:104BB000929C200D1124922E06C08D3291F08033EC
:104BC00079F7689450F8F30193FD859193FF8191F3
:104BD0003F018111DBCF20C0689451F8689452F8EE
:104BE000F2CF689453F8EFCF689454F8ECCF429C1E
:104BF000200D1124422E689455F8E5CF8E3229F409
:104C000056FCF9C0689456F8DECF8C3619F46894D7
:104C100057F8D9CF8836B9F2982F9F7D95549330A5
:104C2000C0F08336A1F18337C1F1833509F05BC051
:104C3000F801C190D1908F01692D70E056FC02C03F
:104C40006FEF7FEFC6010E9461274C01689457F80F
:104C50000AC00C5F1F4F2FE3298388248394912C73
:104C60006501E89457F853FC04C04814190409F08E
:104C700018F5342C8114910431F5332009F46ACFEE
:104C8000B70180E290E00E9477273A94F6CFF801CE
:104C9000808189830E5F1F4FE0CFF801C190D190D2
:104CA0008F01692D70E056FC02C06FEF7FEFC601E7
:104CB0000E946C274C01D5CFB70180E290E00E94A2
:104CC00077274A94D2CFF60157FC859157FE819100
:104CD0006F01B70190E00E94772731103A94F1E01C
:104CE0008F1A9108C7CF843619F0893609F074C03D
:104CF000F80157FE6AC061917191819191918F0184
:104D0000252D2F76D22E97FF09C09095809570950E
:104D100061957F4F8F4F9F4F6894D7F82AE030E01E
:104D2000A5010E94A727C82ECA188C2C5D2CD6FE80
:104D30000CC0E89450F8C91440F4D4FE05C0D2FC6D
:104D400003C0FD2DFE7E5F2E892C54FE8FC0FE0118
:104D5000EC0DF11D8081803309F081C0252D297E65
:104D6000522E852D8870382E53FC8FC050FE89C07E
:104D70009C2C841418F44C0C942C981854FE8BC062
:104D8000B70180E390E00E94772752FE09C088E7D0
:104D900090E051FE02C088E590E0B7010E947727BD
:104DA000C91408F484C0CA94D12C9FEFC91AD90A37
:104DB000CA0CDB1CF60182916F01B70190E00E94E2
:104DC0007727AC14BD04B1F758CF61917191072ECC
:104DD000000C880B990B93CFD52CE894D4F82AE0DB
:104DE00030E0853739F1952D997FD92E8F3601F135
:104DF00048F48835A9F0F701868197812B96E2E186
:104E00000C94D823803749F08837A9F7D4FE02C024
:104E10006894D2F820E130E00DC06894D4F8F6CF61
:104E200054FE03C0E92FE660DE2E20E132E002C02E
:104E300028E030E0F801D7FE0DC0619171918191B9
:104E400091918F01A5010E94A727C82ECA18E89446
:104E5000D7F86BCF6191719190E080E0F2CF52FC76
:104E600002C083947ECF839483947BCF852D8678F4
:104E700009F477CFF6CFB70180E290E00E94772760
:104E800083948414C0F3312C79CF342C38188414D3
:104E900008F474CFF8CF852D867809F481CF8BE2A2
:104EA00051FE80E257FC8DE2B70190E077CFB70169
:104EB00080E390E00E9477279A9472CF8FEF9FEF64
:104EC0009DCFFC010590615070400110D8F780958E
:104ED00090958E0F9F1F0895FC01615070400190C6
:104EE0000110D8F7809590958E0F9F1F08950F930E
:104EF0001F93CF93DF93182F092FEB018B8181FD37
:104F000009C01FEF0FEF812F902FDF91CF911F91DD
:104F10000F91089582FF14C02E813F818C819D8165
:104F2000281739073CF4E881F981CF01019699836C
:104F3000888310838E819F8101969F838E83E3CF28
:104F4000E885F985812F0995892BA1F3DACFFA013C
:104F5000AA27283051F1203181F1E8946F936E7FB8
:104F60006E5F7F4F8F4F9F4FAF4FB1E03ED0B4E0A9
:104F70003CD0670F781F891F9A1FA11D680F791FEA
:104F80008A1F911DA11D6A0F711D811D911DA11DFB
:104F900020D009F468943F912AE0269F112430190B
:104FA000305D3193DEF6CF010895462F4770405DA6
:104FB0004193B3E00FD0C9F7F6CF462F4F70405D55
:104FC0004A3318F0495D31FD4052419302D0A9F7B0
:104FD000EACFB4E0A6959795879577956795BA95AA
:104FE000C9F700976105710508959B01AC010A2E70
:104FF00006945795479537952795BA95C9F7620F47
:10500000731F841F951FA01D0895F894FFCFFE0AFB
:10501000FE0A070B070B090B070B070B070BFE0A12
:10502000FE0A0E0B070B070B0E0B430B4F0B540B1B
:105030004D0B520B590B570B38116011B512601103
:10504000B5129311B411B51260126D12AD18AD18EE
:105050002619261974198E19E218E21899196F1A6F
:045060007E1A7E1A1C
:105064000000970220007D00012000C705E20BC16B
:105074000BBD0BB90B010A25640A00344A796D6D26
:105084002F78724B613000818283E200E900EA00EC
:10509400B500B600B700CD008301CC008A019201AF
:1050A40094012102230224022502260227022A0255
:1050B400B300B4006F007000404D6D66011901AC7F
:0850C400008806A106BA0600EF
:00000001FF
